{
  "_format": "hh-sol-artifact-1",
  "contractName": "BudgieCoin",
  "sourceName": "contracts/BudgieCoin.sol",
  "abi": [
    {
      "inputs": [
        {
          "internalType": "uint256",
          "name": "initialSupply",
          "type": "uint256"
        },
        {
          "internalType": "uint256",
          "name": "_maximumMinted",
          "type": "uint256"
        },
        {
          "internalType": "address",
          "name": "signerAddress",
          "type": "address"
        }
      ],
      "stateMutability": "nonpayable",
      "type": "constructor"
    },
    {
      "anonymous": false,
      "inputs": [
        {
          "indexed": true,
          "internalType": "address",
          "name": "owner",
          "type": "address"
        },
        {
          "indexed": true,
          "internalType": "address",
          "name": "spender",
          "type": "address"
        },
        {
          "indexed": false,
          "internalType": "uint256",
          "name": "value",
          "type": "uint256"
        }
      ],
      "name": "Approval",
      "type": "event"
    },
    {
      "anonymous": false,
      "inputs": [
        {
          "indexed": true,
          "internalType": "address",
          "name": "from",
          "type": "address"
        },
        {
          "indexed": true,
          "internalType": "address",
          "name": "to",
          "type": "address"
        },
        {
          "indexed": false,
          "internalType": "uint256",
          "name": "value",
          "type": "uint256"
        }
      ],
      "name": "Transfer",
      "type": "event"
    },
    {
      "inputs": [
        {
          "internalType": "address",
          "name": "owner",
          "type": "address"
        },
        {
          "internalType": "address",
          "name": "spender",
          "type": "address"
        }
      ],
      "name": "allowance",
      "outputs": [
        {
          "internalType": "uint256",
          "name": "",
          "type": "uint256"
        }
      ],
      "stateMutability": "view",
      "type": "function"
    },
    {
      "inputs": [
        {
          "internalType": "address",
          "name": "spender",
          "type": "address"
        },
        {
          "internalType": "uint256",
          "name": "amount",
          "type": "uint256"
        }
      ],
      "name": "approve",
      "outputs": [
        {
          "internalType": "bool",
          "name": "",
          "type": "bool"
        }
      ],
      "stateMutability": "nonpayable",
      "type": "function"
    },
    {
      "inputs": [
        {
          "internalType": "address",
          "name": "account",
          "type": "address"
        }
      ],
      "name": "balanceOf",
      "outputs": [
        {
          "internalType": "uint256",
          "name": "",
          "type": "uint256"
        }
      ],
      "stateMutability": "view",
      "type": "function"
    },
    {
      "inputs": [],
      "name": "decimals",
      "outputs": [
        {
          "internalType": "uint8",
          "name": "",
          "type": "uint8"
        }
      ],
      "stateMutability": "view",
      "type": "function"
    },
    {
      "inputs": [
        {
          "internalType": "address",
          "name": "spender",
          "type": "address"
        },
        {
          "internalType": "uint256",
          "name": "subtractedValue",
          "type": "uint256"
        }
      ],
      "name": "decreaseAllowance",
      "outputs": [
        {
          "internalType": "bool",
          "name": "",
          "type": "bool"
        }
      ],
      "stateMutability": "nonpayable",
      "type": "function"
    },
    {
      "inputs": [
        {
          "internalType": "string",
          "name": "twitterId",
          "type": "string"
        }
      ],
      "name": "getWithdrawnAlready",
      "outputs": [
        {
          "internalType": "bool",
          "name": "",
          "type": "bool"
        }
      ],
      "stateMutability": "view",
      "type": "function"
    },
    {
      "inputs": [
        {
          "internalType": "address",
          "name": "spender",
          "type": "address"
        },
        {
          "internalType": "uint256",
          "name": "addedValue",
          "type": "uint256"
        }
      ],
      "name": "increaseAllowance",
      "outputs": [
        {
          "internalType": "bool",
          "name": "",
          "type": "bool"
        }
      ],
      "stateMutability": "nonpayable",
      "type": "function"
    },
    {
      "inputs": [
        {
          "internalType": "uint8",
          "name": "v",
          "type": "uint8"
        },
        {
          "internalType": "bytes32",
          "name": "r",
          "type": "bytes32"
        },
        {
          "internalType": "bytes32",
          "name": "s",
          "type": "bytes32"
        },
        {
          "internalType": "string",
          "name": "twitterId",
          "type": "string"
        },
        {
          "internalType": "address",
          "name": "authorizedAddress",
          "type": "address"
        },
        {
          "internalType": "uint256",
          "name": "followers",
          "type": "uint256"
        }
      ],
      "name": "mintBudgieCoin",
      "outputs": [],
      "stateMutability": "nonpayable",
      "type": "function"
    },
    {
      "inputs": [],
      "name": "name",
      "outputs": [
        {
          "internalType": "string",
          "name": "",
          "type": "string"
        }
      ],
      "stateMutability": "view",
      "type": "function"
    },
    {
      "inputs": [
        {
          "internalType": "address",
          "name": "to",
          "type": "address"
        }
      ],
      "name": "setSigner",
      "outputs": [],
      "stateMutability": "nonpayable",
      "type": "function"
    },
    {
      "inputs": [],
      "name": "symbol",
      "outputs": [
        {
          "internalType": "string",
          "name": "",
          "type": "string"
        }
      ],
      "stateMutability": "view",
      "type": "function"
    },
    {
      "inputs": [],
      "name": "totalSupply",
      "outputs": [
        {
          "internalType": "uint256",
          "name": "",
          "type": "uint256"
        }
      ],
      "stateMutability": "view",
      "type": "function"
    },
    {
      "inputs": [
        {
          "internalType": "address",
          "name": "to",
          "type": "address"
        },
        {
          "internalType": "uint256",
          "name": "amount",
          "type": "uint256"
        }
      ],
      "name": "transfer",
      "outputs": [
        {
          "internalType": "bool",
          "name": "",
          "type": "bool"
        }
      ],
      "stateMutability": "nonpayable",
      "type": "function"
    },
    {
      "inputs": [
        {
          "internalType": "address",
          "name": "from",
          "type": "address"
        },
        {
          "internalType": "address",
          "name": "to",
          "type": "address"
        },
        {
          "internalType": "uint256",
          "name": "amount",
          "type": "uint256"
        }
      ],
      "name": "transferFrom",
      "outputs": [
        {
          "internalType": "bool",
          "name": "",
          "type": "bool"
        }
      ],
      "stateMutability": "nonpayable",
      "type": "function"
    },
    {
      "inputs": [
        {
          "internalType": "uint8",
          "name": "v",
          "type": "uint8"
        },
        {
          "internalType": "bytes32",
          "name": "r",
          "type": "bytes32"
        },
        {
          "internalType": "bytes32",
          "name": "s",
          "type": "bytes32"
        },
        {
          "internalType": "string",
          "name": "twitterId",
          "type": "string"
        },
        {
          "internalType": "uint256",
          "name": "followers",
          "type": "uint256"
        },
        {
          "internalType": "address",
          "name": "authorizedAddress",
          "type": "address"
        }
      ],
      "name": "verifySignature",
      "outputs": [
        {
          "internalType": "address",
          "name": "",
          "type": "address"
        }
      ],
      "stateMutability": "view",
      "type": "function"
    }
  ],
  "bytecode": "0x60806040523480156200001157600080fd5b5060405162002ab338038062002ab38339818101604052810190620000379190620003e3565b6040518060400160405280600381526020017f42474300000000000000000000000000000000000000000000000000000000008152506040518060400160405280600381526020017f42474300000000000000000000000000000000000000000000000000000000008152508160039080519060200190620000bb92919062000305565b508060049080519060200190620000d492919062000305565b505050620000e933846200018260201b60201c565b8260078190555033600660006101000a81548173ffffffffffffffffffffffffffffffffffffffff021916908373ffffffffffffffffffffffffffffffffffffffff1602179055508160088190555080600560006101000a81548173ffffffffffffffffffffffffffffffffffffffff021916908373ffffffffffffffffffffffffffffffffffffffff1602179055505050506200064d565b600073ffffffffffffffffffffffffffffffffffffffff168273ffffffffffffffffffffffffffffffffffffffff161415620001f5576040517f08c379a0000000000000000000000000000000000000000000000000000000008152600401620001ec9062000471565b60405180910390fd5b6200020960008383620002fb60201b60201c565b80600260008282546200021d9190620004c1565b92505081905550806000808473ffffffffffffffffffffffffffffffffffffffff1673ffffffffffffffffffffffffffffffffffffffff1681526020019081526020016000206000828254620002749190620004c1565b925050819055508173ffffffffffffffffffffffffffffffffffffffff16600073ffffffffffffffffffffffffffffffffffffffff167fddf252ad1be2c89b69c2b068fc378daa952ba7f163c4a11628f55a4df523b3ef83604051620002db919062000493565b60405180910390a3620002f7600083836200030060201b60201c565b5050565b505050565b505050565b82805462000313906200055c565b90600052602060002090601f01602090048101928262000337576000855562000383565b82601f106200035257805160ff191683800117855562000383565b8280016001018555821562000383579182015b828111156200038257825182559160200191906001019062000365565b5b50905062000392919062000396565b5090565b5b80821115620003b157600081600090555060010162000397565b5090565b600081519050620003c68162000619565b92915050565b600081519050620003dd8162000633565b92915050565b600080600060608486031215620003f957600080fd5b60006200040986828701620003cc565b93505060206200041c86828701620003cc565b92505060406200042f86828701620003b5565b9150509250925092565b600062000448601f83620004b0565b91506200045582620005f0565b602082019050919050565b6200046b8162000552565b82525050565b600060208201905081810360008301526200048c8162000439565b9050919050565b6000602082019050620004aa600083018462000460565b92915050565b600082825260208201905092915050565b6000620004ce8262000552565b9150620004db8362000552565b9250827fffffffffffffffffffffffffffffffffffffffffffffffffffffffffffffffff0382111562000513576200051262000592565b5b828201905092915050565b60006200052b8262000532565b9050919050565b600073ffffffffffffffffffffffffffffffffffffffff82169050919050565b6000819050919050565b600060028204905060018216806200057557607f821691505b602082108114156200058c576200058b620005c1565b5b50919050565b7f4e487b7100000000000000000000000000000000000000000000000000000000600052601160045260246000fd5b7f4e487b7100000000000000000000000000000000000000000000000000000000600052602260045260246000fd5b7f45524332303a206d696e7420746f20746865207a65726f206164647265737300600082015250565b62000624816200051e565b81146200063057600080fd5b50565b6200063e8162000552565b81146200064a57600080fd5b50565b612456806200065d6000396000f3fe608060405234801561001057600080fd5b50600436106100f55760003560e01c80635283f6b711610097578063a457c2d711610066578063a457c2d71461029a578063a9059cbb146102ca578063d08724a3146102fa578063dd62ed3e1461032a576100f5565b80635283f6b7146102145780636c19e7831461023057806370a082311461024c57806395d89b411461027c576100f5565b806321a9559f116100d357806321a9559f1461016657806323b872dd14610196578063313ce567146101c657806339509351146101e4576100f5565b806306fdde03146100fa578063095ea7b31461011857806318160ddd14610148575b600080fd5b61010261035a565b60405161010f9190611a97565b60405180910390f35b610132600480360381019061012d919061147d565b6103ec565b60405161013f919061199f565b60405180910390f35b61015061040f565b60405161015d9190611c59565b60405180910390f35b610180600480360381019061017b91906114b9565b610419565b60405161018d919061199f565b60405180910390f35b6101b060048036038101906101ab919061142e565b610451565b6040516101bd919061199f565b60405180910390f35b6101ce610480565b6040516101db9190611c74565b60405180910390f35b6101fe60048036038101906101f9919061147d565b610489565b60405161020b919061199f565b60405180910390f35b61022e600480360381019061022991906114fe565b610533565b005b61024a600480360381019061024591906113c9565b61078e565b005b610266600480360381019061026191906113c9565b610862565b6040516102739190611c59565b60405180910390f35b6102846108aa565b6040516102919190611a97565b60405180910390f35b6102b460048036038101906102af919061147d565b61093c565b6040516102c1919061199f565b60405180910390f35b6102e460048036038101906102df919061147d565b610a26565b6040516102f1919061199f565b60405180910390f35b610314600480360381019061030f91906115a5565b610a49565b6040516103219190611984565b60405180910390f35b610344600480360381019061033f91906113f2565b610c5a565b6040516103519190611c59565b60405180910390f35b60606003805461036990611f83565b80601f016020809104026020016040519081016040528092919081815260200182805461039590611f83565b80156103e25780601f106103b7576101008083540402835291602001916103e2565b820191906000526020600020905b8154815290600101906020018083116103c557829003601f168201915b5050505050905090565b6000806103f7610ce1565b9050610404818585610ce9565b600191505092915050565b6000600254905090565b60006009838360405161042d929190611934565b908152602001604051809103902060009054906101000a900460ff16905092915050565b60008061045c610ce1565b9050610469858285610eb4565b610474858585610f40565b60019150509392505050565b60006012905090565b600080610494610ce1565b9050610528818585600160008673ffffffffffffffffffffffffffffffffffffffff1673ffffffffffffffffffffffffffffffffffffffff16815260200190815260200160002060008973ffffffffffffffffffffffffffffffffffffffff1673ffffffffffffffffffffffffffffffffffffffff168152602001908152602001600020546105239190611cc1565b610ce9565b600191505092915050565b6000151560098585604051610549929190611934565b908152602001604051809103902060009054906101000a900460ff161515146105a7576040517f08c379a000000000000000000000000000000000000000000000000000000000815260040161059e90611b59565b60405180910390fd5b60006105b888888888888789610a49565b9050600560009054906101000a900473ffffffffffffffffffffffffffffffffffffffff1673ffffffffffffffffffffffffffffffffffffffff168173ffffffffffffffffffffffffffffffffffffffff161461064a576040517f08c379a000000000000000000000000000000000000000000000000000000000815260040161064190611ad9565b60405180910390fd5b60006012600a61065a9190611d6a565b836106659190611e88565b9050600854600754826106789190611cc1565b11156106b9576040517f08c379a00000000000000000000000000000000000000000000000000000000081526004016106b090611b99565b60405180910390fd5b3373ffffffffffffffffffffffffffffffffffffffff168473ffffffffffffffffffffffffffffffffffffffff1614610727576040517f08c379a000000000000000000000000000000000000000000000000000000000815260040161071e90611bb9565b60405180910390fd5b80600760008282546107399190611cc1565b92505081905550600160098787604051610754929190611934565b908152602001604051809103902060006101000a81548160ff02191690831515021790555061078333826111c1565b505050505050505050565b600660009054906101000a900473ffffffffffffffffffffffffffffffffffffffff1673ffffffffffffffffffffffffffffffffffffffff163373ffffffffffffffffffffffffffffffffffffffff161461081e576040517f08c379a000000000000000000000000000000000000000000000000000000000815260040161081590611b79565b60405180910390fd5b80600560006101000a81548173ffffffffffffffffffffffffffffffffffffffff021916908373ffffffffffffffffffffffffffffffffffffffff16021790555050565b60008060008373ffffffffffffffffffffffffffffffffffffffff1673ffffffffffffffffffffffffffffffffffffffff168152602001908152602001600020549050919050565b6060600480546108b990611f83565b80601f01602080910402602001604051908101604052809291908181526020018280546108e590611f83565b80156109325780601f1061090757610100808354040283529160200191610932565b820191906000526020600020905b81548152906001019060200180831161091557829003601f168201915b5050505050905090565b600080610947610ce1565b90506000600160008373ffffffffffffffffffffffffffffffffffffffff1673ffffffffffffffffffffffffffffffffffffffff16815260200190815260200160002060008673ffffffffffffffffffffffffffffffffffffffff1673ffffffffffffffffffffffffffffffffffffffff16815260200190815260200160002054905083811015610a0d576040517f08c379a0000000000000000000000000000000000000000000000000000000008152600401610a0490611c19565b60405180910390fd5b610a1a8286868403610ce9565b60019250505092915050565b600080610a31610ce1565b9050610a3e818585610f40565b600191505092915050565b60008046905060007f8b73c3c69bb8fe3d512ecc4cf759cc79239f7b179b0ffacaa9a75d522b39400f6040518060400160405280600981526020017f4275646769655061790000000000000000000000000000000000000000000000815250805190602001206040518060400160405280600181526020017f3100000000000000000000000000000000000000000000000000000000000000815250805190602001208430604051602001610b029594939291906119ff565b60405160208183030381529060405280519060200120905060006040518060800160405280604181526020016123e060419139805190602001208888604051610b4c92919061191b565b604051809103902087604051602001610b659190611c59565b6040516020818303038152906040528051906020012087604051602001610b8c9190611984565b60405160208183030381529060405280519060200120604051602001610bb594939291906119ba565b60405160208183030381529060405280519060200120905060008282604051602001610be292919061194d565b6040516020818303038152906040528051906020012090506001818d8d8d60405160008152602001604052604051610c1d9493929190611a52565b6020604051602081039080840390855afa158015610c3f573d6000803e3d6000fd5b50505060206040510351945050505050979650505050505050565b6000600160008473ffffffffffffffffffffffffffffffffffffffff1673ffffffffffffffffffffffffffffffffffffffff16815260200190815260200160002060008373ffffffffffffffffffffffffffffffffffffffff1673ffffffffffffffffffffffffffffffffffffffff16815260200190815260200160002054905092915050565b600033905090565b600073ffffffffffffffffffffffffffffffffffffffff168373ffffffffffffffffffffffffffffffffffffffff161415610d59576040517f08c379a0000000000000000000000000000000000000000000000000000000008152600401610d5090611bf9565b60405180910390fd5b600073ffffffffffffffffffffffffffffffffffffffff168273ffffffffffffffffffffffffffffffffffffffff161415610dc9576040517f08c379a0000000000000000000000000000000000000000000000000000000008152600401610dc090611af9565b60405180910390fd5b80600160008573ffffffffffffffffffffffffffffffffffffffff1673ffffffffffffffffffffffffffffffffffffffff16815260200190815260200160002060008473ffffffffffffffffffffffffffffffffffffffff1673ffffffffffffffffffffffffffffffffffffffff168152602001908152602001600020819055508173ffffffffffffffffffffffffffffffffffffffff168373ffffffffffffffffffffffffffffffffffffffff167f8c5be1e5ebec7d5bd14f71427d1e84f3dd0314c0f7b2291e5b200ac8c7c3b92583604051610ea79190611c59565b60405180910390a3505050565b6000610ec08484610c5a565b90507fffffffffffffffffffffffffffffffffffffffffffffffffffffffffffffffff8114610f3a5781811015610f2c576040517f08c379a0000000000000000000000000000000000000000000000000000000008152600401610f2390611b19565b60405180910390fd5b610f398484848403610ce9565b5b50505050565b600073ffffffffffffffffffffffffffffffffffffffff168373ffffffffffffffffffffffffffffffffffffffff161415610fb0576040517f08c379a0000000000000000000000000000000000000000000000000000000008152600401610fa790611bd9565b60405180910390fd5b600073ffffffffffffffffffffffffffffffffffffffff168273ffffffffffffffffffffffffffffffffffffffff161415611020576040517f08c379a000000000000000000000000000000000000000000000000000000000815260040161101790611ab9565b60405180910390fd5b61102b838383611321565b60008060008573ffffffffffffffffffffffffffffffffffffffff1673ffffffffffffffffffffffffffffffffffffffff168152602001908152602001600020549050818110156110b1576040517f08c379a00000000000000000000000000000000000000000000000000000000081526004016110a890611b39565b60405180910390fd5b8181036000808673ffffffffffffffffffffffffffffffffffffffff1673ffffffffffffffffffffffffffffffffffffffff16815260200190815260200160002081905550816000808573ffffffffffffffffffffffffffffffffffffffff1673ffffffffffffffffffffffffffffffffffffffff16815260200190815260200160002060008282546111449190611cc1565b925050819055508273ffffffffffffffffffffffffffffffffffffffff168473ffffffffffffffffffffffffffffffffffffffff167fddf252ad1be2c89b69c2b068fc378daa952ba7f163c4a11628f55a4df523b3ef846040516111a89190611c59565b60405180910390a36111bb848484611326565b50505050565b600073ffffffffffffffffffffffffffffffffffffffff168273ffffffffffffffffffffffffffffffffffffffff161415611231576040517f08c379a000000000000000000000000000000000000000000000000000000000815260040161122890611c39565b60405180910390fd5b61123d60008383611321565b806002600082825461124f9190611cc1565b92505081905550806000808473ffffffffffffffffffffffffffffffffffffffff1673ffffffffffffffffffffffffffffffffffffffff16815260200190815260200160002060008282546112a49190611cc1565b925050819055508173ffffffffffffffffffffffffffffffffffffffff16600073ffffffffffffffffffffffffffffffffffffffff167fddf252ad1be2c89b69c2b068fc378daa952ba7f163c4a11628f55a4df523b3ef836040516113099190611c59565b60405180910390a361131d60008383611326565b5050565b505050565b505050565b60008135905061133a81612383565b92915050565b60008135905061134f8161239a565b92915050565b60008083601f84011261136757600080fd5b8235905067ffffffffffffffff81111561138057600080fd5b60208301915083600182028301111561139857600080fd5b9250929050565b6000813590506113ae816123b1565b92915050565b6000813590506113c3816123c8565b92915050565b6000602082840312156113db57600080fd5b60006113e98482850161132b565b91505092915050565b6000806040838503121561140557600080fd5b60006114138582860161132b565b92505060206114248582860161132b565b9150509250929050565b60008060006060848603121561144357600080fd5b60006114518682870161132b565b93505060206114628682870161132b565b92505060406114738682870161139f565b9150509250925092565b6000806040838503121561149057600080fd5b600061149e8582860161132b565b92505060206114af8582860161139f565b9150509250929050565b600080602083850312156114cc57600080fd5b600083013567ffffffffffffffff8111156114e657600080fd5b6114f285828601611355565b92509250509250929050565b600080600080600080600060c0888a03121561151957600080fd5b60006115278a828b016113b4565b97505060206115388a828b01611340565b96505060406115498a828b01611340565b955050606088013567ffffffffffffffff81111561156657600080fd5b6115728a828b01611355565b945094505060806115858a828b0161132b565b92505060a06115968a828b0161139f565b91505092959891949750929550565b600080600080600080600060c0888a0312156115c057600080fd5b60006115ce8a828b016113b4565b97505060206115df8a828b01611340565b96505060406115f08a828b01611340565b955050606088013567ffffffffffffffff81111561160d57600080fd5b6116198a828b01611355565b9450945050608061162c8a828b0161139f565b92505060a061163d8a828b0161132b565b91505092959891949750929550565b61165581611ee2565b82525050565b61166481611ef4565b82525050565b61167381611f00565b82525050565b61168a61168582611f00565b611fb5565b82525050565b600061169c8385611c9a565b93506116a9838584611f41565b82840190509392505050565b60006116c18385611cb6565b93506116ce838584611f41565b82840190509392505050565b60006116e582611c8f565b6116ef8185611ca5565b93506116ff818560208601611f50565b6117088161201d565b840191505092915050565b6000611720602383611ca5565b915061172b8261203b565b604082019050919050565b6000611743600e83611ca5565b915061174e8261208a565b602082019050919050565b6000611766602283611ca5565b9150611771826120b3565b604082019050919050565b6000611789600283611cb6565b915061179482612102565b600282019050919050565b60006117ac601d83611ca5565b91506117b78261212b565b602082019050919050565b60006117cf602683611ca5565b91506117da82612154565b604082019050919050565b60006117f2602583611ca5565b91506117fd826121a3565b604082019050919050565b6000611815601c83611ca5565b9150611820826121f2565b602082019050919050565b6000611838601883611ca5565b91506118438261221b565b602082019050919050565b600061185b601683611ca5565b915061186682612244565b602082019050919050565b600061187e602583611ca5565b91506118898261226d565b604082019050919050565b60006118a1602483611ca5565b91506118ac826122bc565b604082019050919050565b60006118c4602583611ca5565b91506118cf8261230b565b604082019050919050565b60006118e7601f83611ca5565b91506118f28261235a565b602082019050919050565b61190681611f2a565b82525050565b61191581611f34565b82525050565b6000611928828486611690565b91508190509392505050565b60006119418284866116b5565b91508190509392505050565b60006119588261177c565b91506119648285611679565b6020820191506119748284611679565b6020820191508190509392505050565b6000602082019050611999600083018461164c565b92915050565b60006020820190506119b4600083018461165b565b92915050565b60006080820190506119cf600083018761166a565b6119dc602083018661166a565b6119e9604083018561166a565b6119f6606083018461166a565b95945050505050565b600060a082019050611a14600083018861166a565b611a21602083018761166a565b611a2e604083018661166a565b611a3b60608301856118fd565b611a48608083018461164c565b9695505050505050565b6000608082019050611a67600083018761166a565b611a74602083018661190c565b611a81604083018561166a565b611a8e606083018461166a565b95945050505050565b60006020820190508181036000830152611ab181846116da565b905092915050565b60006020820190508181036000830152611ad281611713565b9050919050565b60006020820190508181036000830152611af281611736565b9050919050565b60006020820190508181036000830152611b1281611759565b9050919050565b60006020820190508181036000830152611b328161179f565b9050919050565b60006020820190508181036000830152611b52816117c2565b9050919050565b60006020820190508181036000830152611b72816117e5565b9050919050565b60006020820190508181036000830152611b9281611808565b9050919050565b60006020820190508181036000830152611bb28161182b565b9050919050565b60006020820190508181036000830152611bd28161184e565b9050919050565b60006020820190508181036000830152611bf281611871565b9050919050565b60006020820190508181036000830152611c1281611894565b9050919050565b60006020820190508181036000830152611c32816118b7565b9050919050565b60006020820190508181036000830152611c52816118da565b9050919050565b6000602082019050611c6e60008301846118fd565b92915050565b6000602082019050611c89600083018461190c565b92915050565b600081519050919050565b600081905092915050565b600082825260208201905092915050565b600081905092915050565b6000611ccc82611f2a565b9150611cd783611f2a565b9250827fffffffffffffffffffffffffffffffffffffffffffffffffffffffffffffffff03821115611d0c57611d0b611fbf565b5b828201905092915050565b6000808291508390505b6001851115611d6157808604811115611d3d57611d3c611fbf565b5b6001851615611d4c5780820291505b8081029050611d5a8561202e565b9450611d21565b94509492505050565b6000611d7582611f2a565b9150611d8083611f2a565b9250611dad7fffffffffffffffffffffffffffffffffffffffffffffffffffffffffffffffff8484611db5565b905092915050565b600082611dc55760019050611e81565b81611dd35760009050611e81565b8160018114611de95760028114611df357611e22565b6001915050611e81565b60ff841115611e0557611e04611fbf565b5b8360020a915084821115611e1c57611e1b611fbf565b5b50611e81565b5060208310610133831016604e8410600b8410161715611e575782820a905083811115611e5257611e51611fbf565b5b611e81565b611e648484846001611d17565b92509050818404811115611e7b57611e7a611fbf565b5b81810290505b9392505050565b6000611e9382611f2a565b9150611e9e83611f2a565b9250817fffffffffffffffffffffffffffffffffffffffffffffffffffffffffffffffff0483118215151615611ed757611ed6611fbf565b5b828202905092915050565b6000611eed82611f0a565b9050919050565b60008115159050919050565b6000819050919050565b600073ffffffffffffffffffffffffffffffffffffffff82169050919050565b6000819050919050565b600060ff82169050919050565b82818337600083830152505050565b60005b83811015611f6e578082015181840152602081019050611f53565b83811115611f7d576000848401525b50505050565b60006002820490506001821680611f9b57607f821691505b60208210811415611faf57611fae611fee565b5b50919050565b6000819050919050565b7f4e487b7100000000000000000000000000000000000000000000000000000000600052601160045260246000fd5b7f4e487b7100000000000000000000000000000000000000000000000000000000600052602260045260246000fd5b6000601f19601f8301169050919050565b60008160011c9050919050565b7f45524332303a207472616e7366657220746f20746865207a65726f206164647260008201527f6573730000000000000000000000000000000000000000000000000000000000602082015250565b7f496e76616c6964205369676e6572000000000000000000000000000000000000600082015250565b7f45524332303a20617070726f766520746f20746865207a65726f20616464726560008201527f7373000000000000000000000000000000000000000000000000000000000000602082015250565b7f1901000000000000000000000000000000000000000000000000000000000000600082015250565b7f45524332303a20696e73756666696369656e7420616c6c6f77616e6365000000600082015250565b7f45524332303a207472616e7366657220616d6f756e742065786365656473206260008201527f616c616e63650000000000000000000000000000000000000000000000000000602082015250565b7f54686520757365722077697468647265772074686520746f6b656e7320616c7260008201527f656164792e000000000000000000000000000000000000000000000000000000602082015250565b7f4f6e6c7920746865206f776e65722063616e2063616c6c207468697300000000600082015250565b7f43616e6e6f74206d696e74206d6f726520746f6b656e73210000000000000000600082015250565b7f596f7520617265206e6f7420617574686f72697a656400000000000000000000600082015250565b7f45524332303a207472616e736665722066726f6d20746865207a65726f20616460008201527f6472657373000000000000000000000000000000000000000000000000000000602082015250565b7f45524332303a20617070726f76652066726f6d20746865207a65726f2061646460008201527f7265737300000000000000000000000000000000000000000000000000000000602082015250565b7f45524332303a2064656372656173656420616c6c6f77616e63652062656c6f7760008201527f207a65726f000000000000000000000000000000000000000000000000000000602082015250565b7f45524332303a206d696e7420746f20746865207a65726f206164647265737300600082015250565b61238c81611ee2565b811461239757600080fd5b50565b6123a381611f00565b81146123ae57600080fd5b50565b6123ba81611f2a565b81146123c557600080fd5b50565b6123d181611f34565b81146123dc57600080fd5b5056fe646f6328737472696e67207477697474657249642c75696e7432353620666f6c6c6f776572732c6164647265737320617574686f72697a65644164647265737329a26469706673582212200d1d2c2e50213ca4dc507fb5b4a018d5e7a9f8bdf64f81912747b552a277ecd964736f6c63430008040033",
  "linkReferences": {},
  "deployedLinkReferences": {}
}