{
  "_format": "hh-sol-artifact-1",
  "contractName": "Payments",
  "sourceName": "contracts/Payments.sol",
  "abi": [
    {
      "inputs": [
        {
          "internalType": "address",
          "name": "signerAddress",
          "type": "address"
        }
      ],
      "stateMutability": "nonpayable",
      "type": "constructor"
    },
    {
      "inputs": [],
      "name": "getLastPaymentId",
      "outputs": [
        {
          "internalType": "uint256",
          "name": "",
          "type": "uint256"
        }
      ],
      "stateMutability": "view",
      "type": "function"
    },
    {
      "inputs": [
        {
          "internalType": "uint256",
          "name": "id",
          "type": "uint256"
        }
      ],
      "name": "getPaymentById",
      "outputs": [
        {
          "components": [
            {
              "internalType": "uint256",
              "name": "id",
              "type": "uint256"
            },
            {
              "internalType": "address",
              "name": "from",
              "type": "address"
            },
            {
              "internalType": "bytes32",
              "name": "fromTwitterId",
              "type": "bytes32"
            },
            {
              "internalType": "bytes32",
              "name": "toTwitterId",
              "type": "bytes32"
            },
            {
              "internalType": "uint256",
              "name": "amount",
              "type": "uint256"
            },
            {
              "internalType": "bool",
              "name": "claimed",
              "type": "bool"
            },
            {
              "internalType": "bool",
              "name": "refunded",
              "type": "bool"
            },
            {
              "internalType": "bool",
              "name": "initialized",
              "type": "bool"
            }
          ],
          "internalType": "struct Payment",
          "name": "",
          "type": "tuple"
        }
      ],
      "stateMutability": "view",
      "type": "function"
    },
    {
      "inputs": [
        {
          "internalType": "string",
          "name": "fromTwitterId",
          "type": "string"
        }
      ],
      "name": "getPaymentIdsFrom",
      "outputs": [
        {
          "internalType": "uint256[]",
          "name": "",
          "type": "uint256[]"
        }
      ],
      "stateMutability": "view",
      "type": "function"
    },
    {
      "inputs": [
        {
          "internalType": "string",
          "name": "toTwitterId",
          "type": "string"
        }
      ],
      "name": "getPaymentIdsTo",
      "outputs": [
        {
          "internalType": "uint256[]",
          "name": "",
          "type": "uint256[]"
        }
      ],
      "stateMutability": "view",
      "type": "function"
    },
    {
      "inputs": [],
      "name": "getTotalAndCurrentBalance",
      "outputs": [
        {
          "internalType": "uint256",
          "name": "",
          "type": "uint256"
        },
        {
          "internalType": "uint256",
          "name": "",
          "type": "uint256"
        }
      ],
      "stateMutability": "view",
      "type": "function"
    },
    {
      "inputs": [
        {
          "internalType": "uint8",
          "name": "v",
          "type": "uint8"
        },
        {
          "internalType": "bytes32",
          "name": "r",
          "type": "bytes32"
        },
        {
          "internalType": "bytes32",
          "name": "s",
          "type": "bytes32"
        },
        {
          "internalType": "address",
          "name": "from",
          "type": "address"
        },
        {
          "internalType": "string",
          "name": "fromTwitterId",
          "type": "string"
        },
        {
          "internalType": "string",
          "name": "toTwitterId",
          "type": "string"
        },
        {
          "internalType": "uint256",
          "name": "amount",
          "type": "uint256"
        }
      ],
      "name": "payEth",
      "outputs": [],
      "stateMutability": "payable",
      "type": "function"
    },
    {
      "inputs": [
        {
          "internalType": "uint8",
          "name": "v",
          "type": "uint8"
        },
        {
          "internalType": "bytes32",
          "name": "r",
          "type": "bytes32"
        },
        {
          "internalType": "bytes32",
          "name": "s",
          "type": "bytes32"
        },
        {
          "internalType": "uint256",
          "name": "id",
          "type": "uint256"
        },
        {
          "internalType": "string",
          "name": "fromTwitterId",
          "type": "string"
        },
        {
          "internalType": "address",
          "name": "from",
          "type": "address"
        }
      ],
      "name": "refund",
      "outputs": [],
      "stateMutability": "nonpayable",
      "type": "function"
    },
    {
      "inputs": [
        {
          "internalType": "address",
          "name": "to",
          "type": "address"
        }
      ],
      "name": "setSigner",
      "outputs": [],
      "stateMutability": "nonpayable",
      "type": "function"
    },
    {
      "inputs": [
        {
          "internalType": "uint8",
          "name": "v",
          "type": "uint8"
        },
        {
          "internalType": "bytes32",
          "name": "r",
          "type": "bytes32"
        },
        {
          "internalType": "bytes32",
          "name": "s",
          "type": "bytes32"
        },
        {
          "internalType": "address",
          "name": "from",
          "type": "address"
        },
        {
          "internalType": "string",
          "name": "fromTwitterId",
          "type": "string"
        },
        {
          "internalType": "string",
          "name": "toTwitterId",
          "type": "string"
        },
        {
          "internalType": "uint256",
          "name": "amount",
          "type": "uint256"
        }
      ],
      "name": "verifyPaymentSignature",
      "outputs": [
        {
          "internalType": "address",
          "name": "",
          "type": "address"
        }
      ],
      "stateMutability": "view",
      "type": "function"
    },
    {
      "inputs": [
        {
          "internalType": "uint8",
          "name": "v",
          "type": "uint8"
        },
        {
          "internalType": "bytes32",
          "name": "r",
          "type": "bytes32"
        },
        {
          "internalType": "bytes32",
          "name": "s",
          "type": "bytes32"
        },
        {
          "internalType": "uint256",
          "name": "id",
          "type": "uint256"
        },
        {
          "internalType": "string",
          "name": "fromTwitterId",
          "type": "string"
        },
        {
          "internalType": "address",
          "name": "from",
          "type": "address"
        }
      ],
      "name": "verifyRefundSignature",
      "outputs": [
        {
          "internalType": "address",
          "name": "",
          "type": "address"
        }
      ],
      "stateMutability": "view",
      "type": "function"
    },
    {
      "inputs": [
        {
          "internalType": "uint8",
          "name": "v",
          "type": "uint8"
        },
        {
          "internalType": "bytes32",
          "name": "r",
          "type": "bytes32"
        },
        {
          "internalType": "bytes32",
          "name": "s",
          "type": "bytes32"
        },
        {
          "internalType": "uint256",
          "name": "id",
          "type": "uint256"
        },
        {
          "internalType": "string",
          "name": "toTwitterId",
          "type": "string"
        },
        {
          "internalType": "address",
          "name": "from",
          "type": "address"
        }
      ],
      "name": "verifyWithdrawSignature",
      "outputs": [
        {
          "internalType": "address",
          "name": "",
          "type": "address"
        }
      ],
      "stateMutability": "view",
      "type": "function"
    },
    {
      "inputs": [
        {
          "internalType": "uint8",
          "name": "v",
          "type": "uint8"
        },
        {
          "internalType": "bytes32",
          "name": "r",
          "type": "bytes32"
        },
        {
          "internalType": "bytes32",
          "name": "s",
          "type": "bytes32"
        },
        {
          "internalType": "uint256",
          "name": "id",
          "type": "uint256"
        },
        {
          "internalType": "string",
          "name": "toTwitterId",
          "type": "string"
        },
        {
          "internalType": "address",
          "name": "from",
          "type": "address"
        }
      ],
      "name": "withdraw",
      "outputs": [],
      "stateMutability": "nonpayable",
      "type": "function"
    }
  ],
  "bytecode": "0x60806040523480156200001157600080fd5b50604051620028a9380380620028a98339818101604052810190620000379190620000df565b600160008190555080600160006101000a81548173ffffffffffffffffffffffffffffffffffffffff021916908373ffffffffffffffffffffffffffffffffffffffff16021790555033600260006101000a81548173ffffffffffffffffffffffffffffffffffffffff021916908373ffffffffffffffffffffffffffffffffffffffff1602179055505062000159565b600081519050620000d9816200013f565b92915050565b600060208284031215620000f257600080fd5b60006200010284828501620000c8565b91505092915050565b600062000118826200011f565b9050919050565b600073ffffffffffffffffffffffffffffffffffffffff82169050919050565b6200014a816200010b565b81146200015657600080fd5b50565b61274080620001696000396000f3fe6080604052600436106100a75760003560e01c8063ba2a0a3511610064578063ba2a0a35146101d1578063cebe068e1461020e578063dc44752a1461024b578063de70855f14610288578063deb49ba0146102b3578063f1d7b9d7146102dc576100a7565b80633de73ebe146100ac57806367380256146100e95780636c19e7831461011257806376277bc51461013b578063a8d8234e14610178578063b52ec9bc146101b5575b600080fd5b3480156100b857600080fd5b506100d360048036038101906100ce91906118f9565b610308565b6040516100e0919061222d565b60405180910390f35b3480156100f557600080fd5b50610110600480360381019061010b91906119f8565b610405565b005b34801561011e57600080fd5b506101396004803603810190610134919061188b565b610808565b005b34801561014757600080fd5b50610162600480360381019061015d91906119f8565b6108dc565b60405161016f9190611f00565b60405180910390f35b34801561018457600080fd5b5061019f600480360381019061019a9190611922565b610a29565b6040516101ac9190611f00565b60405180910390f35b6101cf60048036038101906101ca9190611922565b610b91565b005b3480156101dd57600080fd5b506101f860048036038101906101f391906119f8565b610d32565b6040516102059190611f00565b60405180910390f35b34801561021a57600080fd5b50610235600480360381019061023091906118b4565b610e7f565b6040516102429190611f1b565b60405180910390f35b34801561025757600080fd5b50610272600480360381019061026d91906118b4565b610f02565b60405161027f9190611f1b565b60405180910390f35b34801561029457600080fd5b5061029d610f85565b6040516102aa9190612249565b60405180910390f35b3480156102bf57600080fd5b506102da60048036038101906102d591906119f8565b610f8f565b005b3480156102e857600080fd5b506102f1611392565b6040516102ff929190612264565b60405180910390f35b610310611786565b6003600083815260200190815260200160002060405180610100016040529081600082015481526020016001820160009054906101000a900473ffffffffffffffffffffffffffffffffffffffff1673ffffffffffffffffffffffffffffffffffffffff1673ffffffffffffffffffffffffffffffffffffffff1681526020016002820154815260200160038201548152602001600482015481526020016005820160009054906101000a900460ff161515151581526020016005820160019054906101000a900460ff161515151581526020016005820160029054906101000a900460ff1615151515815250509050919050565b6002600054141561044b576040517f08c379a00000000000000000000000000000000000000000000000000000000081526004016104429061220d565b60405180910390fd5b60026000819055508073ffffffffffffffffffffffffffffffffffffffff163373ffffffffffffffffffffffffffffffffffffffff16146104c1576040517f08c379a00000000000000000000000000000000000000000000000000000000081526004016104b89061212d565b60405180910390fd5b60006104d2888888888888886108dc565b9050600160009054906101000a900473ffffffffffffffffffffffffffffffffffffffff1673ffffffffffffffffffffffffffffffffffffffff168173ffffffffffffffffffffffffffffffffffffffff1614610564576040517f08c379a000000000000000000000000000000000000000000000000000000000815260040161055b9061206d565b60405180910390fd5b6003600086815260200190815260200160002060050160029054906101000a900460ff166105c7576040517f08c379a00000000000000000000000000000000000000000000000000000000081526004016105be9061208d565b60405180910390fd5b6003600086815260200190815260200160002060050160009054906101000a900460ff161561062b576040517f08c379a0000000000000000000000000000000000000000000000000000000008152600401610622906121cd565b60405180910390fd5b6003600086815260200190815260200160002060050160019054906101000a900460ff161561068f576040517f08c379a0000000000000000000000000000000000000000000000000000000008152600401610686906121ad565b60405180910390fd5b838360405161069f929190611e9b565b60405180910390206003600087815260200190815260200160002060020154146106fe576040517f08c379a00000000000000000000000000000000000000000000000000000000081526004016106f59061218d565b60405180910390fd5b60016003600087815260200190815260200160002060050160016101000a81548160ff02191690831515021790555060036000868152602001908152602001600020600401546008541015610788576040517f08c379a000000000000000000000000000000000000000000000000000000000815260040161077f906121ed565b60405180910390fd5b6107c760036000878152602001908152602001600020600401548373ffffffffffffffffffffffffffffffffffffffff166113a390919063ffffffff16565b6003600086815260200190815260200160002060040154600860008282546107ef9190612343565b9250508190555050600160008190555050505050505050565b600260009054906101000a900473ffffffffffffffffffffffffffffffffffffffff1673ffffffffffffffffffffffffffffffffffffffff163373ffffffffffffffffffffffffffffffffffffffff1614610898576040517f08c379a000000000000000000000000000000000000000000000000000000000815260040161088f9061214d565b60405180910390fd5b80600160006101000a81548173ffffffffffffffffffffffffffffffffffffffff021916908373ffffffffffffffffffffffffffffffffffffffff16021790555050565b6000806108e7611497565b905060007fa6b3186a17bbeef1dc71a67be1f4314e8bde1329c8b63f692e0faeecd9d9ee6f8760405160200161091d9190612249565b604051602081830303815290604052805190602001208787604051610943929190611e9b565b60405180910390208660405160200161095c9190611f00565b604051602081830303815290604052805190602001206040516020016109859493929190611f3d565b604051602081830303815290604052805190602001209050600082826040516020016109b2929190611eb4565b6040516020818303038152906040528051906020012090506001818c8c8c604051600081526020016040526040516109ed9493929190612028565b6020604051602081039080840390855afa158015610a0f573d6000803e3d6000fd5b505050602060405103519350505050979650505050505050565b600080610a34611497565b905060007f092d9f21ffc8fe65517404e6c610a329c9a99e5c46455d0e3062a10d112d617289604051602001610a6a9190611f00565b604051602081830303815290604052805190602001208989604051610a90929190611e9b565b60405180910390208888604051610aa8929190611e9b565b604051809103902087604051602001610ac19190612249565b60405160208183030381529060405280519060200120604051602001610aeb959493929190611f82565b60405160208183030381529060405280519060200120905060008282604051602001610b18929190611eb4565b6040516020818303038152906040528051906020012090506001818e8e8e60405160008152602001604052604051610b539493929190612028565b6020604051602081039080840390855afa158015610b75573d6000803e3d6000fd5b5050506020604051035193505050509998505050505050505050565b8573ffffffffffffffffffffffffffffffffffffffff163373ffffffffffffffffffffffffffffffffffffffff1614610bff576040517f08c379a0000000000000000000000000000000000000000000000000000000008152600401610bf6906120ad565b60405180910390fd5b6000610c128a8a8a8a8a8a8a8a8a610a29565b9050600160009054906101000a900473ffffffffffffffffffffffffffffffffffffffff1673ffffffffffffffffffffffffffffffffffffffff168173ffffffffffffffffffffffffffffffffffffffff1614610ca4576040517f08c379a0000000000000000000000000000000000000000000000000000000008152600401610c9b9061206d565b60405180910390fd5b813414610ce6576040517f08c379a0000000000000000000000000000000000000000000000000000000008152600401610cdd9061216d565b60405180910390fd5b3460076000828254610cf891906122ed565b925050819055503460086000828254610d1191906122ed565b92505081905550610d2687878787878761156a565b50505050505050505050565b600080610d3d611497565b905060007fbcbe531d81fbb73e1b189aec0ee15299734d1dfa5e82988dd7e71804fa34a5fc87604051602001610d739190612249565b604051602081830303815290604052805190602001208787604051610d99929190611e9b565b604051809103902086604051602001610db29190611f00565b60405160208183030381529060405280519060200120604051602001610ddb9493929190611f3d565b60405160208183030381529060405280519060200120905060008282604051602001610e08929190611eb4565b6040516020818303038152906040528051906020012090506001818c8c8c60405160008152602001604052604051610e439493929190612028565b6020604051602081039080840390855afa158015610e65573d6000803e3d6000fd5b505050602060405103519350505050979650505050505050565b6060600560008484604051610e95929190611e9b565b60405180910390208152602001908152602001600020805480602002602001604051908101604052809291908181526020018280548015610ef557602002820191906000526020600020905b815481526020019060010190808311610ee1575b5050505050905092915050565b6060600660008484604051610f18929190611e9b565b60405180910390208152602001908152602001600020805480602002602001604051908101604052809291908181526020018280548015610f7857602002820191906000526020600020905b815481526020019060010190808311610f64575b5050505050905092915050565b6000600454905090565b60026000541415610fd5576040517f08c379a0000000000000000000000000000000000000000000000000000000008152600401610fcc9061220d565b60405180910390fd5b60026000819055508073ffffffffffffffffffffffffffffffffffffffff163373ffffffffffffffffffffffffffffffffffffffff161461104b576040517f08c379a00000000000000000000000000000000000000000000000000000000081526004016110429061212d565b60405180910390fd5b600061105c88888888888888610d32565b9050600160009054906101000a900473ffffffffffffffffffffffffffffffffffffffff1673ffffffffffffffffffffffffffffffffffffffff168173ffffffffffffffffffffffffffffffffffffffff16146110ee576040517f08c379a00000000000000000000000000000000000000000000000000000000081526004016110e59061206d565b60405180910390fd5b6003600086815260200190815260200160002060050160029054906101000a900460ff16611151576040517f08c379a00000000000000000000000000000000000000000000000000000000081526004016111489061208d565b60405180910390fd5b6003600086815260200190815260200160002060050160009054906101000a900460ff16156111b5576040517f08c379a00000000000000000000000000000000000000000000000000000000081526004016111ac906121cd565b60405180910390fd5b6003600086815260200190815260200160002060050160019054906101000a900460ff1615611219576040517f08c379a0000000000000000000000000000000000000000000000000000000008152600401611210906121ad565b60405180910390fd5b8383604051611229929190611e9b565b6040518091039020600360008781526020019081526020016000206003015414611288576040517f08c379a000000000000000000000000000000000000000000000000000000000815260040161127f9061218d565b60405180910390fd5b60016003600087815260200190815260200160002060050160006101000a81548160ff02191690831515021790555060036000868152602001908152602001600020600401546008541015611312576040517f08c379a00000000000000000000000000000000000000000000000000000000081526004016113099061210d565b60405180910390fd5b61135160036000878152602001908152602001600020600401548373ffffffffffffffffffffffffffffffffffffffff166113a390919063ffffffff16565b6003600086815260200190815260200160002060040154600860008282546113799190612343565b9250508190555050600160008190555050505050505050565b600080600754600854915091509091565b804710156113e6576040517f08c379a00000000000000000000000000000000000000000000000000000000081526004016113dd906120ed565b60405180910390fd5b60008273ffffffffffffffffffffffffffffffffffffffff168260405161140c90611eeb565b60006040518083038185875af1925050503d8060008114611449576040519150601f19603f3d011682016040523d82523d6000602084013e61144e565b606091505b5050905080611492576040517f08c379a0000000000000000000000000000000000000000000000000000000008152600401611489906120cd565b60405180910390fd5b505050565b6000804690507f8b73c3c69bb8fe3d512ecc4cf759cc79239f7b179b0ffacaa9a75d522b39400f6040518060400160405280600981526020017f4275646769655061790000000000000000000000000000000000000000000000815250805190602001206040518060400160405280600181526020017f310000000000000000000000000000000000000000000000000000000000000081525080519060200120833060405160200161154e959493929190611fd5565b6040516020818303038152906040528051906020012091505090565b60016004600082825461157d91906122ed565b9250508190555060008585604051611596929190611e9b565b60405180910390209050600084846040516115b2929190611e9b565b60405180910390209050600060405180610100016040528060045481526020018a73ffffffffffffffffffffffffffffffffffffffff168152602001848152602001838152602001858152602001600015158152602001600015158152602001600115158152509050600560008481526020019081526020016000206004549080600181540180825580915050600190039060005260206000200160009091909190915055600660008381526020019081526020016000206004549080600181540180825580915050600190039060005260206000200160009091909190915055806003600060045481526020019081526020016000206000820151816000015560208201518160010160006101000a81548173ffffffffffffffffffffffffffffffffffffffff021916908373ffffffffffffffffffffffffffffffffffffffff16021790555060408201518160020155606082015181600301556080820151816004015560a08201518160050160006101000a81548160ff02191690831515021790555060c08201518160050160016101000a81548160ff02191690831515021790555060e08201518160050160026101000a81548160ff021916908315150217905550905050505050505050505050565b60405180610100016040528060008152602001600073ffffffffffffffffffffffffffffffffffffffff1681526020016000801916815260200160008019168152602001600081526020016000151581526020016000151581526020016000151581525090565b6000813590506117fc816126ae565b92915050565b600081359050611811816126c5565b92915050565b60008083601f84011261182957600080fd5b8235905067ffffffffffffffff81111561184257600080fd5b60208301915083600182028301111561185a57600080fd5b9250929050565b600081359050611870816126dc565b92915050565b600081359050611885816126f3565b92915050565b60006020828403121561189d57600080fd5b60006118ab848285016117ed565b91505092915050565b600080602083850312156118c757600080fd5b600083013567ffffffffffffffff8111156118e157600080fd5b6118ed85828601611817565b92509250509250929050565b60006020828403121561190b57600080fd5b600061191984828501611861565b91505092915050565b600080600080600080600080600060e08a8c03121561194057600080fd5b600061194e8c828d01611876565b995050602061195f8c828d01611802565b98505060406119708c828d01611802565b97505060606119818c828d016117ed565b96505060808a013567ffffffffffffffff81111561199e57600080fd5b6119aa8c828d01611817565b955095505060a08a013567ffffffffffffffff8111156119c957600080fd5b6119d58c828d01611817565b935093505060c06119e88c828d01611861565b9150509295985092959850929598565b600080600080600080600060c0888a031215611a1357600080fd5b6000611a218a828b01611876565b9750506020611a328a828b01611802565b9650506040611a438a828b01611802565b9550506060611a548a828b01611861565b945050608088013567ffffffffffffffff811115611a7157600080fd5b611a7d8a828b01611817565b935093505060a0611a908a828b016117ed565b91505092959891949750929550565b6000611aab8383611e6e565b60208301905092915050565b611ac081612377565b82525050565b611acf81612377565b82525050565b6000611ae08261229d565b611aea81856122b5565b9350611af58361228d565b8060005b83811015611b26578151611b0d8882611a9f565b9750611b18836122a8565b925050600181019050611af9565b5085935050505092915050565b611b3c81612389565b82525050565b611b4b81612395565b82525050565b611b5a81612395565b82525050565b611b71611b6c82612395565b6123e5565b82525050565b6000611b8383856122c6565b9350611b908385846123d6565b82840190509392505050565b6000611ba9600e836122d1565b9150611bb48261241e565b602082019050919050565b6000611bcc6002836122e2565b9150611bd782612447565b600282019050919050565b6000611bef600a836122d1565b9150611bfa82612470565b602082019050919050565b6000611c126011836122d1565b9150611c1d82612499565b602082019050919050565b6000611c35603a836122d1565b9150611c40826124c2565b604082019050919050565b6000611c58601d836122d1565b9150611c6382612511565b602082019050919050565b6000611c7b6012836122d1565b9150611c868261253a565b602082019050919050565b6000611c9e600e836122d1565b9150611ca982612563565b602082019050919050565b6000611cc1601c836122d1565b9150611ccc8261258c565b602082019050919050565b6000611ce46019836122d1565b9150611cef826125b5565b602082019050919050565b6000611d076011836122d1565b9150611d12826125de565b602082019050919050565b6000611d2a6010836122d1565b9150611d3582612607565b602082019050919050565b6000611d4d6000836122c6565b9150611d5882612630565b600082019050919050565b6000611d70600f836122d1565b9150611d7b82612633565b602082019050919050565b6000611d936011836122d1565b9150611d9e8261265c565b602082019050919050565b6000611db6601f836122d1565b9150611dc182612685565b602082019050919050565b61010082016000820151611de36000850182611e6e565b506020820151611df66020850182611ab7565b506040820151611e096040850182611b42565b506060820151611e1c6060850182611b42565b506080820151611e2f6080850182611e6e565b5060a0820151611e4260a0850182611b33565b5060c0820151611e5560c0850182611b33565b5060e0820151611e6860e0850182611b33565b50505050565b611e77816123bf565b82525050565b611e86816123bf565b82525050565b611e95816123c9565b82525050565b6000611ea8828486611b77565b91508190509392505050565b6000611ebf82611bbf565b9150611ecb8285611b60565b602082019150611edb8284611b60565b6020820191508190509392505050565b6000611ef682611d40565b9150819050919050565b6000602082019050611f156000830184611ac6565b92915050565b60006020820190508181036000830152611f358184611ad5565b905092915050565b6000608082019050611f526000830187611b51565b611f5f6020830186611b51565b611f6c6040830185611b51565b611f796060830184611b51565b95945050505050565b600060a082019050611f976000830188611b51565b611fa46020830187611b51565b611fb16040830186611b51565b611fbe6060830185611b51565b611fcb6080830184611b51565b9695505050505050565b600060a082019050611fea6000830188611b51565b611ff76020830187611b51565b6120046040830186611b51565b6120116060830185611e7d565b61201e6080830184611ac6565b9695505050505050565b600060808201905061203d6000830187611b51565b61204a6020830186611e8c565b6120576040830185611b51565b6120646060830184611b51565b95945050505050565b6000602082019050818103600083015261208681611b9c565b9050919050565b600060208201905081810360008301526120a681611be2565b9050919050565b600060208201905081810360008301526120c681611c05565b9050919050565b600060208201905081810360008301526120e681611c28565b9050919050565b6000602082019050818103600083015261210681611c4b565b9050919050565b6000602082019050818103600083015261212681611c6e565b9050919050565b6000602082019050818103600083015261214681611c91565b9050919050565b6000602082019050818103600083015261216681611cb4565b9050919050565b6000602082019050818103600083015261218681611cd7565b9050919050565b600060208201905081810360008301526121a681611cfa565b9050919050565b600060208201905081810360008301526121c681611d1d565b9050919050565b600060208201905081810360008301526121e681611d63565b9050919050565b6000602082019050818103600083015261220681611d86565b9050919050565b6000602082019050818103600083015261222681611da9565b9050919050565b6000610100820190506122436000830184611dcc565b92915050565b600060208201905061225e6000830184611e7d565b92915050565b60006040820190506122796000830185611e7d565b6122866020830184611e7d565b9392505050565b6000819050602082019050919050565b600081519050919050565b6000602082019050919050565b600082825260208201905092915050565b600081905092915050565b600082825260208201905092915050565b600081905092915050565b60006122f8826123bf565b9150612303836123bf565b9250827fffffffffffffffffffffffffffffffffffffffffffffffffffffffffffffffff03821115612338576123376123ef565b5b828201905092915050565b600061234e826123bf565b9150612359836123bf565b92508282101561236c5761236b6123ef565b5b828203905092915050565b60006123828261239f565b9050919050565b60008115159050919050565b6000819050919050565b600073ffffffffffffffffffffffffffffffffffffffff82169050919050565b6000819050919050565b600060ff82169050919050565b82818337600083830152505050565b6000819050919050565b7f4e487b7100000000000000000000000000000000000000000000000000000000600052601160045260246000fd5b7f496e76616c6964205369676e6572000000000000000000000000000000000000600082015250565b7f1901000000000000000000000000000000000000000000000000000000000000600082015250565b7f496e76616c696420696400000000000000000000000000000000000000000000600082015250565b7f496e76616c6964207369676e6174757265000000000000000000000000000000600082015250565b7f416464726573733a20756e61626c6520746f2073656e642076616c75652c207260008201527f6563697069656e74206d61792068617665207265766572746564000000000000602082015250565b7f416464726573733a20696e73756666696369656e742062616c616e6365000000600082015250565b7f4e6f7420656e6f7567682062616c616e63650000000000000000000000000000600082015250565b7f496e76616c69642073656e646572000000000000000000000000000000000000600082015250565b7f4f6e6c7920746865206f776e65722063616e2063616c6c207468697300000000600082015250565b7f416d6f756e7420616e642056616c7565206d69736d6174636800000000000000600082015250565b7f496e76616c696420547769747465724964000000000000000000000000000000600082015250565b7f416c726561647920526566756e64656400000000000000000000000000000000600082015250565b50565b7f416c726561647920436c61696d65640000000000000000000000000000000000600082015250565b7f4e6f7420456e6f75676820426c616e6365000000000000000000000000000000600082015250565b7f5265656e7472616e637947756172643a207265656e7472616e742063616c6c00600082015250565b6126b781612377565b81146126c257600080fd5b50565b6126ce81612395565b81146126d957600080fd5b50565b6126e5816123bf565b81146126f057600080fd5b50565b6126fc816123c9565b811461270757600080fd5b5056fea26469706673582212201db33c259ddab9c3b0410f0f6e53fa9117c0c302d31eae08fccb15f59711bc1664736f6c63430008040033",
  "linkReferences": {},
  "deployedLinkReferences": {}
}