{
  "_format": "hh-sol-artifact-1",
  "contractName": "Payments",
  "sourceName": "contracts/Payments.sol",
  "abi": [
    {
      "inputs": [
        {
          "internalType": "address",
          "name": "signerAddress",
          "type": "address"
        }
      ],
      "stateMutability": "nonpayable",
      "type": "constructor"
    },
    {
      "anonymous": false,
      "inputs": [
        {
          "indexed": false,
          "internalType": "uint256",
          "name": "paymentId",
          "type": "uint256"
        }
      ],
      "name": "Pay",
      "type": "event"
    },
    {
      "anonymous": false,
      "inputs": [
        {
          "indexed": false,
          "internalType": "uint256",
          "name": "paymentId",
          "type": "uint256"
        }
      ],
      "name": "Refund",
      "type": "event"
    },
    {
      "anonymous": false,
      "inputs": [
        {
          "indexed": false,
          "internalType": "uint256",
          "name": "paymentId",
          "type": "uint256"
        }
      ],
      "name": "Withdraw",
      "type": "event"
    },
    {
      "inputs": [
        {
          "internalType": "uint256",
          "name": "amount",
          "type": "uint256"
        }
      ],
      "name": "calculateFee",
      "outputs": [
        {
          "internalType": "uint256",
          "name": "",
          "type": "uint256"
        },
        {
          "internalType": "uint256",
          "name": "",
          "type": "uint256"
        }
      ],
      "stateMutability": "pure",
      "type": "function"
    },
    {
      "inputs": [],
      "name": "getLastPaymentId",
      "outputs": [
        {
          "internalType": "uint256",
          "name": "",
          "type": "uint256"
        }
      ],
      "stateMutability": "view",
      "type": "function"
    },
    {
      "inputs": [
        {
          "internalType": "uint256",
          "name": "id",
          "type": "uint256"
        }
      ],
      "name": "getPaymentById",
      "outputs": [
        {
          "components": [
            {
              "internalType": "uint256",
              "name": "id",
              "type": "uint256"
            },
            {
              "internalType": "address",
              "name": "from",
              "type": "address"
            },
            {
              "internalType": "bytes32",
              "name": "fromTwitterId",
              "type": "bytes32"
            },
            {
              "internalType": "bytes32",
              "name": "toTwitterId",
              "type": "bytes32"
            },
            {
              "internalType": "uint256",
              "name": "amount",
              "type": "uint256"
            },
            {
              "internalType": "bool",
              "name": "claimed",
              "type": "bool"
            },
            {
              "internalType": "bool",
              "name": "refunded",
              "type": "bool"
            },
            {
              "internalType": "bool",
              "name": "initialized",
              "type": "bool"
            }
          ],
          "internalType": "struct Payment",
          "name": "",
          "type": "tuple"
        }
      ],
      "stateMutability": "view",
      "type": "function"
    },
    {
      "inputs": [
        {
          "internalType": "string",
          "name": "fromTwitterId",
          "type": "string"
        }
      ],
      "name": "getPaymentIdsFrom",
      "outputs": [
        {
          "internalType": "uint256[]",
          "name": "",
          "type": "uint256[]"
        }
      ],
      "stateMutability": "view",
      "type": "function"
    },
    {
      "inputs": [
        {
          "internalType": "string",
          "name": "toTwitterId",
          "type": "string"
        }
      ],
      "name": "getPaymentIdsTo",
      "outputs": [
        {
          "internalType": "uint256[]",
          "name": "",
          "type": "uint256[]"
        }
      ],
      "stateMutability": "view",
      "type": "function"
    },
    {
      "inputs": [
        {
          "internalType": "uint256",
          "name": "first",
          "type": "uint256"
        },
        {
          "internalType": "uint256",
          "name": "second",
          "type": "uint256"
        },
        {
          "internalType": "uint256",
          "name": "third",
          "type": "uint256"
        },
        {
          "internalType": "uint256",
          "name": "fourth",
          "type": "uint256"
        },
        {
          "internalType": "uint256",
          "name": "fifth",
          "type": "uint256"
        }
      ],
      "name": "getPaymentsPaginated",
      "outputs": [
        {
          "components": [
            {
              "internalType": "uint256",
              "name": "id",
              "type": "uint256"
            },
            {
              "internalType": "address",
              "name": "from",
              "type": "address"
            },
            {
              "internalType": "bytes32",
              "name": "fromTwitterId",
              "type": "bytes32"
            },
            {
              "internalType": "bytes32",
              "name": "toTwitterId",
              "type": "bytes32"
            },
            {
              "internalType": "uint256",
              "name": "amount",
              "type": "uint256"
            },
            {
              "internalType": "bool",
              "name": "claimed",
              "type": "bool"
            },
            {
              "internalType": "bool",
              "name": "refunded",
              "type": "bool"
            },
            {
              "internalType": "bool",
              "name": "initialized",
              "type": "bool"
            }
          ],
          "internalType": "struct Payment",
          "name": "",
          "type": "tuple"
        },
        {
          "components": [
            {
              "internalType": "uint256",
              "name": "id",
              "type": "uint256"
            },
            {
              "internalType": "address",
              "name": "from",
              "type": "address"
            },
            {
              "internalType": "bytes32",
              "name": "fromTwitterId",
              "type": "bytes32"
            },
            {
              "internalType": "bytes32",
              "name": "toTwitterId",
              "type": "bytes32"
            },
            {
              "internalType": "uint256",
              "name": "amount",
              "type": "uint256"
            },
            {
              "internalType": "bool",
              "name": "claimed",
              "type": "bool"
            },
            {
              "internalType": "bool",
              "name": "refunded",
              "type": "bool"
            },
            {
              "internalType": "bool",
              "name": "initialized",
              "type": "bool"
            }
          ],
          "internalType": "struct Payment",
          "name": "",
          "type": "tuple"
        },
        {
          "components": [
            {
              "internalType": "uint256",
              "name": "id",
              "type": "uint256"
            },
            {
              "internalType": "address",
              "name": "from",
              "type": "address"
            },
            {
              "internalType": "bytes32",
              "name": "fromTwitterId",
              "type": "bytes32"
            },
            {
              "internalType": "bytes32",
              "name": "toTwitterId",
              "type": "bytes32"
            },
            {
              "internalType": "uint256",
              "name": "amount",
              "type": "uint256"
            },
            {
              "internalType": "bool",
              "name": "claimed",
              "type": "bool"
            },
            {
              "internalType": "bool",
              "name": "refunded",
              "type": "bool"
            },
            {
              "internalType": "bool",
              "name": "initialized",
              "type": "bool"
            }
          ],
          "internalType": "struct Payment",
          "name": "",
          "type": "tuple"
        },
        {
          "components": [
            {
              "internalType": "uint256",
              "name": "id",
              "type": "uint256"
            },
            {
              "internalType": "address",
              "name": "from",
              "type": "address"
            },
            {
              "internalType": "bytes32",
              "name": "fromTwitterId",
              "type": "bytes32"
            },
            {
              "internalType": "bytes32",
              "name": "toTwitterId",
              "type": "bytes32"
            },
            {
              "internalType": "uint256",
              "name": "amount",
              "type": "uint256"
            },
            {
              "internalType": "bool",
              "name": "claimed",
              "type": "bool"
            },
            {
              "internalType": "bool",
              "name": "refunded",
              "type": "bool"
            },
            {
              "internalType": "bool",
              "name": "initialized",
              "type": "bool"
            }
          ],
          "internalType": "struct Payment",
          "name": "",
          "type": "tuple"
        },
        {
          "components": [
            {
              "internalType": "uint256",
              "name": "id",
              "type": "uint256"
            },
            {
              "internalType": "address",
              "name": "from",
              "type": "address"
            },
            {
              "internalType": "bytes32",
              "name": "fromTwitterId",
              "type": "bytes32"
            },
            {
              "internalType": "bytes32",
              "name": "toTwitterId",
              "type": "bytes32"
            },
            {
              "internalType": "uint256",
              "name": "amount",
              "type": "uint256"
            },
            {
              "internalType": "bool",
              "name": "claimed",
              "type": "bool"
            },
            {
              "internalType": "bool",
              "name": "refunded",
              "type": "bool"
            },
            {
              "internalType": "bool",
              "name": "initialized",
              "type": "bool"
            }
          ],
          "internalType": "struct Payment",
          "name": "",
          "type": "tuple"
        }
      ],
      "stateMutability": "view",
      "type": "function"
    },
    {
      "inputs": [],
      "name": "getTotalAndCurrentBalance",
      "outputs": [
        {
          "internalType": "uint256",
          "name": "",
          "type": "uint256"
        },
        {
          "internalType": "uint256",
          "name": "",
          "type": "uint256"
        }
      ],
      "stateMutability": "view",
      "type": "function"
    },
    {
      "inputs": [
        {
          "internalType": "uint8",
          "name": "v",
          "type": "uint8"
        },
        {
          "internalType": "bytes32",
          "name": "r",
          "type": "bytes32"
        },
        {
          "internalType": "bytes32",
          "name": "s",
          "type": "bytes32"
        },
        {
          "internalType": "address",
          "name": "from",
          "type": "address"
        },
        {
          "internalType": "string",
          "name": "fromTwitterId",
          "type": "string"
        },
        {
          "internalType": "string",
          "name": "toTwitterId",
          "type": "string"
        },
        {
          "internalType": "uint256",
          "name": "amount",
          "type": "uint256"
        }
      ],
      "name": "payEth",
      "outputs": [],
      "stateMutability": "payable",
      "type": "function"
    },
    {
      "inputs": [
        {
          "internalType": "uint8",
          "name": "v",
          "type": "uint8"
        },
        {
          "internalType": "bytes32",
          "name": "r",
          "type": "bytes32"
        },
        {
          "internalType": "bytes32",
          "name": "s",
          "type": "bytes32"
        },
        {
          "internalType": "uint256",
          "name": "id",
          "type": "uint256"
        },
        {
          "internalType": "string",
          "name": "fromTwitterId",
          "type": "string"
        },
        {
          "internalType": "address",
          "name": "from",
          "type": "address"
        }
      ],
      "name": "refund",
      "outputs": [],
      "stateMutability": "nonpayable",
      "type": "function"
    },
    {
      "inputs": [
        {
          "internalType": "address",
          "name": "to",
          "type": "address"
        }
      ],
      "name": "setSigner",
      "outputs": [],
      "stateMutability": "nonpayable",
      "type": "function"
    },
    {
      "inputs": [
        {
          "internalType": "uint8",
          "name": "v",
          "type": "uint8"
        },
        {
          "internalType": "bytes32",
          "name": "r",
          "type": "bytes32"
        },
        {
          "internalType": "bytes32",
          "name": "s",
          "type": "bytes32"
        },
        {
          "internalType": "address",
          "name": "from",
          "type": "address"
        },
        {
          "internalType": "string",
          "name": "fromTwitterId",
          "type": "string"
        },
        {
          "internalType": "string",
          "name": "toTwitterId",
          "type": "string"
        },
        {
          "internalType": "uint256",
          "name": "amount",
          "type": "uint256"
        }
      ],
      "name": "verifyPaymentSignature",
      "outputs": [
        {
          "internalType": "address",
          "name": "",
          "type": "address"
        }
      ],
      "stateMutability": "view",
      "type": "function"
    },
    {
      "inputs": [
        {
          "internalType": "uint8",
          "name": "v",
          "type": "uint8"
        },
        {
          "internalType": "bytes32",
          "name": "r",
          "type": "bytes32"
        },
        {
          "internalType": "bytes32",
          "name": "s",
          "type": "bytes32"
        },
        {
          "internalType": "uint256",
          "name": "id",
          "type": "uint256"
        },
        {
          "internalType": "string",
          "name": "fromTwitterId",
          "type": "string"
        },
        {
          "internalType": "address",
          "name": "from",
          "type": "address"
        }
      ],
      "name": "verifyRefundSignature",
      "outputs": [
        {
          "internalType": "address",
          "name": "",
          "type": "address"
        }
      ],
      "stateMutability": "view",
      "type": "function"
    },
    {
      "inputs": [
        {
          "internalType": "uint8",
          "name": "v",
          "type": "uint8"
        },
        {
          "internalType": "bytes32",
          "name": "r",
          "type": "bytes32"
        },
        {
          "internalType": "bytes32",
          "name": "s",
          "type": "bytes32"
        },
        {
          "internalType": "uint256",
          "name": "id",
          "type": "uint256"
        },
        {
          "internalType": "string",
          "name": "toTwitterId",
          "type": "string"
        },
        {
          "internalType": "address",
          "name": "from",
          "type": "address"
        }
      ],
      "name": "verifyWithdrawSignature",
      "outputs": [
        {
          "internalType": "address",
          "name": "",
          "type": "address"
        }
      ],
      "stateMutability": "view",
      "type": "function"
    },
    {
      "inputs": [
        {
          "internalType": "uint8",
          "name": "v",
          "type": "uint8"
        },
        {
          "internalType": "bytes32",
          "name": "r",
          "type": "bytes32"
        },
        {
          "internalType": "bytes32",
          "name": "s",
          "type": "bytes32"
        },
        {
          "internalType": "uint256",
          "name": "id",
          "type": "uint256"
        },
        {
          "internalType": "string",
          "name": "toTwitterId",
          "type": "string"
        },
        {
          "internalType": "address",
          "name": "from",
          "type": "address"
        }
      ],
      "name": "withdraw",
      "outputs": [],
      "stateMutability": "nonpayable",
      "type": "function"
    }
  ],
  "bytecode": "0x60806040523480156200001157600080fd5b50604051620031cf380380620031cf8339818101604052810190620000379190620000df565b600160008190555080600160006101000a81548173ffffffffffffffffffffffffffffffffffffffff021916908373ffffffffffffffffffffffffffffffffffffffff16021790555033600260006101000a81548173ffffffffffffffffffffffffffffffffffffffff021916908373ffffffffffffffffffffffffffffffffffffffff1602179055505062000159565b600081519050620000d9816200013f565b92915050565b600060208284031215620000f257600080fd5b60006200010284828501620000c8565b91505092915050565b600062000118826200011f565b9050919050565b600073ffffffffffffffffffffffffffffffffffffffff82169050919050565b6200014a816200010b565b81146200015657600080fd5b50565b61306680620001696000396000f3fe6080604052600436106100dd5760003560e01c8063b52ec9bc1161007f578063dc44752a11610059578063dc44752a14610300578063de70855f1461033d578063deb49ba014610368578063f1d7b9d714610391576100dd565b8063b52ec9bc1461026a578063ba2a0a3514610286578063cebe068e146102c3576100dd565b80636c19e783116100bb5780636c19e7831461018957806376277bc5146101b257806399a5d747146101ef578063a8d8234e1461022d576100dd565b8063132631ed146100e25780633de73ebe146101235780636738025614610160575b600080fd5b3480156100ee57600080fd5b50610109600480360381019061010491906120bf565b6103bd565b60405161011a959493929190612a5d565b60405180910390f35b34801561012f57600080fd5b5061014a60048036038101906101459190612096565b6108b1565b6040516101579190612a41565b60405180910390f35b34801561016c57600080fd5b506101876004803603810190610182919061220c565b6109ae565b005b34801561019557600080fd5b506101b060048036038101906101ab9190612028565b610e47565b005b3480156101be57600080fd5b506101d960048036038101906101d4919061220c565b610f1b565b6040516101e69190612714565b60405180910390f35b3480156101fb57600080fd5b5061021660048036038101906102119190612096565b611068565b604051610224929190612ad0565b60405180910390f35b34801561023957600080fd5b50610254600480360381019061024f9190612136565b6110b5565b6040516102619190612714565b60405180910390f35b610284600480360381019061027f9190612136565b61121d565b005b34801561029257600080fd5b506102ad60048036038101906102a8919061220c565b6113f7565b6040516102ba9190612714565b60405180910390f35b3480156102cf57600080fd5b506102ea60048036038101906102e59190612051565b611544565b6040516102f7919061272f565b60405180910390f35b34801561030c57600080fd5b5061032760048036038101906103229190612051565b6115c7565b604051610334919061272f565b60405180910390f35b34801561034957600080fd5b5061035261164a565b60405161035f9190612ab5565b60405180910390f35b34801561037457600080fd5b5061038f600480360381019061038a919061220c565b611654565b005b34801561039d57600080fd5b506103a6611aed565b6040516103b4929190612ad0565b60405180910390f35b6103c5611f23565b6103cd611f23565b6103d5611f23565b6103dd611f23565b6103e5611f23565b600360008b8152602001908152602001600020600360008b8152602001908152602001600020600360008b8152602001908152602001600020600360008b8152602001908152602001600020600360008b81526020019081526020016000208460405180610100016040529081600082015481526020016001820160009054906101000a900473ffffffffffffffffffffffffffffffffffffffff1673ffffffffffffffffffffffffffffffffffffffff1673ffffffffffffffffffffffffffffffffffffffff1681526020016002820154815260200160038201548152602001600482015481526020016005820160009054906101000a900460ff161515151581526020016005820160019054906101000a900460ff161515151581526020016005820160029054906101000a900460ff16151515158152505094508360405180610100016040529081600082015481526020016001820160009054906101000a900473ffffffffffffffffffffffffffffffffffffffff1673ffffffffffffffffffffffffffffffffffffffff1673ffffffffffffffffffffffffffffffffffffffff1681526020016002820154815260200160038201548152602001600482015481526020016005820160009054906101000a900460ff161515151581526020016005820160019054906101000a900460ff161515151581526020016005820160029054906101000a900460ff16151515158152505093508260405180610100016040529081600082015481526020016001820160009054906101000a900473ffffffffffffffffffffffffffffffffffffffff1673ffffffffffffffffffffffffffffffffffffffff1673ffffffffffffffffffffffffffffffffffffffff1681526020016002820154815260200160038201548152602001600482015481526020016005820160009054906101000a900460ff161515151581526020016005820160019054906101000a900460ff161515151581526020016005820160029054906101000a900460ff16151515158152505092508160405180610100016040529081600082015481526020016001820160009054906101000a900473ffffffffffffffffffffffffffffffffffffffff1673ffffffffffffffffffffffffffffffffffffffff1673ffffffffffffffffffffffffffffffffffffffff1681526020016002820154815260200160038201548152602001600482015481526020016005820160009054906101000a900460ff161515151581526020016005820160019054906101000a900460ff161515151581526020016005820160029054906101000a900460ff16151515158152505091508060405180610100016040529081600082015481526020016001820160009054906101000a900473ffffffffffffffffffffffffffffffffffffffff1673ffffffffffffffffffffffffffffffffffffffff1673ffffffffffffffffffffffffffffffffffffffff1681526020016002820154815260200160038201548152602001600482015481526020016005820160009054906101000a900460ff161515151581526020016005820160019054906101000a900460ff161515151581526020016005820160029054906101000a900460ff1615151515815250509050945094509450945094509550955095509550959050565b6108b9611f23565b6003600083815260200190815260200160002060405180610100016040529081600082015481526020016001820160009054906101000a900473ffffffffffffffffffffffffffffffffffffffff1673ffffffffffffffffffffffffffffffffffffffff1673ffffffffffffffffffffffffffffffffffffffff1681526020016002820154815260200160038201548152602001600482015481526020016005820160009054906101000a900460ff161515151581526020016005820160019054906101000a900460ff161515151581526020016005820160029054906101000a900460ff1615151515815250509050919050565b600260005414156109f4576040517f08c379a00000000000000000000000000000000000000000000000000000000081526004016109eb90612a21565b60405180910390fd5b60026000819055508073ffffffffffffffffffffffffffffffffffffffff163373ffffffffffffffffffffffffffffffffffffffff1614610a6a576040517f08c379a0000000000000000000000000000000000000000000000000000000008152600401610a6190612941565b60405180910390fd5b6000610a7b88888888888888610f1b565b9050600160009054906101000a900473ffffffffffffffffffffffffffffffffffffffff1673ffffffffffffffffffffffffffffffffffffffff168173ffffffffffffffffffffffffffffffffffffffff1614610b0d576040517f08c379a0000000000000000000000000000000000000000000000000000000008152600401610b0490612881565b60405180910390fd5b6003600086815260200190815260200160002060050160029054906101000a900460ff16610b70576040517f08c379a0000000000000000000000000000000000000000000000000000000008152600401610b67906128a1565b60405180910390fd5b6003600086815260200190815260200160002060050160009054906101000a900460ff1615610bd4576040517f08c379a0000000000000000000000000000000000000000000000000000000008152600401610bcb906129e1565b60405180910390fd5b6003600086815260200190815260200160002060050160019054906101000a900460ff1615610c38576040517f08c379a0000000000000000000000000000000000000000000000000000000008152600401610c2f906129c1565b60405180910390fd5b8383604051610c489291906126af565b6040518091039020600360008781526020019081526020016000206002015414610ca7576040517f08c379a0000000000000000000000000000000000000000000000000000000008152600401610c9e906129a1565b60405180910390fd5b60016003600087815260200190815260200160002060050160016101000a81548160ff02191690831515021790555060036000868152602001908152602001600020600401546008541015610d31576040517f08c379a0000000000000000000000000000000000000000000000000000000008152600401610d2890612a01565b60405180910390fd5b600080610d536003600089815260200190815260200160002060040154611068565b91509150610d80828573ffffffffffffffffffffffffffffffffffffffff16611afe90919063ffffffff16565b610dcb81600160009054906101000a900473ffffffffffffffffffffffffffffffffffffffff1673ffffffffffffffffffffffffffffffffffffffff16611afe90919063ffffffff16565b600360008881526020019081526020016000206004015460086000828254610df39190612c3a565b925050819055507f2e1897b0591d764356194f7a795238a87c1987c7a877568e50d829d547c92b97600454604051610e2b9190612ab5565b60405180910390a1505050600160008190555050505050505050565b600260009054906101000a900473ffffffffffffffffffffffffffffffffffffffff1673ffffffffffffffffffffffffffffffffffffffff163373ffffffffffffffffffffffffffffffffffffffff1614610ed7576040517f08c379a0000000000000000000000000000000000000000000000000000000008152600401610ece90612961565b60405180910390fd5b80600160006101000a81548173ffffffffffffffffffffffffffffffffffffffff021916908373ffffffffffffffffffffffffffffffffffffffff16021790555050565b600080610f26611bf2565b905060007fa6b3186a17bbeef1dc71a67be1f4314e8bde1329c8b63f692e0faeecd9d9ee6f87604051602001610f5c9190612ab5565b604051602081830303815290604052805190602001208787604051610f829291906126af565b604051809103902086604051602001610f9b9190612714565b60405160208183030381529060405280519060200120604051602001610fc49493929190612751565b60405160208183030381529060405280519060200120905060008282604051602001610ff19291906126c8565b6040516020818303038152906040528051906020012090506001818c8c8c6040516000815260200160405260405161102c949392919061283c565b6020604051602081039080840390855afa15801561104e573d6000803e3d6000fd5b505050602060405103519350505050979650505050505050565b6000806000611095612710611087601487611cc590919063ffffffff16565b611cdb90919063ffffffff16565b90506110aa8185611cf190919063ffffffff16565b819250925050915091565b6000806110c0611bf2565b905060007f092d9f21ffc8fe65517404e6c610a329c9a99e5c46455d0e3062a10d112d6172896040516020016110f69190612714565b60405160208183030381529060405280519060200120898960405161111c9291906126af565b604051809103902088886040516111349291906126af565b60405180910390208760405160200161114d9190612ab5565b60405160208183030381529060405280519060200120604051602001611177959493929190612796565b604051602081830303815290604052805190602001209050600082826040516020016111a49291906126c8565b6040516020818303038152906040528051906020012090506001818e8e8e604051600081526020016040526040516111df949392919061283c565b6020604051602081039080840390855afa158015611201573d6000803e3d6000fd5b5050506020604051035193505050509998505050505050505050565b8573ffffffffffffffffffffffffffffffffffffffff163373ffffffffffffffffffffffffffffffffffffffff161461128b576040517f08c379a0000000000000000000000000000000000000000000000000000000008152600401611282906128c1565b60405180910390fd5b600061129e8a8a8a8a8a8a8a8a8a6110b5565b9050600160009054906101000a900473ffffffffffffffffffffffffffffffffffffffff1673ffffffffffffffffffffffffffffffffffffffff168173ffffffffffffffffffffffffffffffffffffffff1614611330576040517f08c379a000000000000000000000000000000000000000000000000000000000815260040161132790612881565b60405180910390fd5b813414611372576040517f08c379a000000000000000000000000000000000000000000000000000000000815260040161136990612981565b60405180910390fd5b34600760008282546113849190612b59565b92505081905550346008600082825461139d9190612b59565b925050819055506113b2878787878787611d07565b7f781a2cca10f15083d2de4efa525a850679da338505fe558eb29b6ab494738deb6004546040516113e39190612ab5565b60405180910390a150505050505050505050565b600080611402611bf2565b905060007fbcbe531d81fbb73e1b189aec0ee15299734d1dfa5e82988dd7e71804fa34a5fc876040516020016114389190612ab5565b60405160208183030381529060405280519060200120878760405161145e9291906126af565b6040518091039020866040516020016114779190612714565b604051602081830303815290604052805190602001206040516020016114a09493929190612751565b604051602081830303815290604052805190602001209050600082826040516020016114cd9291906126c8565b6040516020818303038152906040528051906020012090506001818c8c8c60405160008152602001604052604051611508949392919061283c565b6020604051602081039080840390855afa15801561152a573d6000803e3d6000fd5b505050602060405103519350505050979650505050505050565b606060056000848460405161155a9291906126af565b604051809103902081526020019081526020016000208054806020026020016040519081016040528092919081815260200182805480156115ba57602002820191906000526020600020905b8154815260200190600101908083116115a6575b5050505050905092915050565b60606006600084846040516115dd9291906126af565b6040518091039020815260200190815260200160002080548060200260200160405190810160405280929190818152602001828054801561163d57602002820191906000526020600020905b815481526020019060010190808311611629575b5050505050905092915050565b6000600454905090565b6002600054141561169a576040517f08c379a000000000000000000000000000000000000000000000000000000000815260040161169190612a21565b60405180910390fd5b60026000819055508073ffffffffffffffffffffffffffffffffffffffff163373ffffffffffffffffffffffffffffffffffffffff1614611710576040517f08c379a000000000000000000000000000000000000000000000000000000000815260040161170790612941565b60405180910390fd5b6000611721888888888888886113f7565b9050600160009054906101000a900473ffffffffffffffffffffffffffffffffffffffff1673ffffffffffffffffffffffffffffffffffffffff168173ffffffffffffffffffffffffffffffffffffffff16146117b3576040517f08c379a00000000000000000000000000000000000000000000000000000000081526004016117aa90612881565b60405180910390fd5b6003600086815260200190815260200160002060050160029054906101000a900460ff16611816576040517f08c379a000000000000000000000000000000000000000000000000000000000815260040161180d906128a1565b60405180910390fd5b6003600086815260200190815260200160002060050160009054906101000a900460ff161561187a576040517f08c379a0000000000000000000000000000000000000000000000000000000008152600401611871906129e1565b60405180910390fd5b6003600086815260200190815260200160002060050160019054906101000a900460ff16156118de576040517f08c379a00000000000000000000000000000000000000000000000000000000081526004016118d5906129c1565b60405180910390fd5b83836040516118ee9291906126af565b604051809103902060036000878152602001908152602001600020600301541461194d576040517f08c379a0000000000000000000000000000000000000000000000000000000008152600401611944906129a1565b60405180910390fd5b60016003600087815260200190815260200160002060050160006101000a81548160ff021916908315150217905550600360008681526020019081526020016000206004015460085410156119d7576040517f08c379a00000000000000000000000000000000000000000000000000000000081526004016119ce90612921565b60405180910390fd5b6000806119f96003600089815260200190815260200160002060040154611068565b91509150611a26828573ffffffffffffffffffffffffffffffffffffffff16611afe90919063ffffffff16565b611a7181600160009054906101000a900473ffffffffffffffffffffffffffffffffffffffff1673ffffffffffffffffffffffffffffffffffffffff16611afe90919063ffffffff16565b600360008881526020019081526020016000206004015460086000828254611a999190612c3a565b925050819055507f5b6b431d4476a211bb7d41c20d1aab9ae2321deee0d20be3d9fc9b1093fa6e3d600454604051611ad19190612ab5565b60405180910390a1505050600160008190555050505050505050565b600080600754600854915091509091565b80471015611b41576040517f08c379a0000000000000000000000000000000000000000000000000000000008152600401611b3890612901565b60405180910390fd5b60008273ffffffffffffffffffffffffffffffffffffffff1682604051611b67906126ff565b60006040518083038185875af1925050503d8060008114611ba4576040519150601f19603f3d011682016040523d82523d6000602084013e611ba9565b606091505b5050905080611bed576040517f08c379a0000000000000000000000000000000000000000000000000000000008152600401611be4906128e1565b60405180910390fd5b505050565b6000804690507f8b73c3c69bb8fe3d512ecc4cf759cc79239f7b179b0ffacaa9a75d522b39400f6040518060400160405280600981526020017f4275646769655061790000000000000000000000000000000000000000000000815250805190602001206040518060400160405280600181526020017f3100000000000000000000000000000000000000000000000000000000000000815250805190602001208330604051602001611ca99594939291906127e9565b6040516020818303038152906040528051906020012091505090565b60008183611cd39190612be0565b905092915050565b60008183611ce99190612baf565b905092915050565b60008183611cff9190612c3a565b905092915050565b600160046000828254611d1a9190612b59565b9250508190555060008585604051611d339291906126af565b6040518091039020905060008484604051611d4f9291906126af565b60405180910390209050600060405180610100016040528060045481526020018a73ffffffffffffffffffffffffffffffffffffffff168152602001848152602001838152602001858152602001600015158152602001600015158152602001600115158152509050600560008481526020019081526020016000206004549080600181540180825580915050600190039060005260206000200160009091909190915055600660008381526020019081526020016000206004549080600181540180825580915050600190039060005260206000200160009091909190915055806003600060045481526020019081526020016000206000820151816000015560208201518160010160006101000a81548173ffffffffffffffffffffffffffffffffffffffff021916908373ffffffffffffffffffffffffffffffffffffffff16021790555060408201518160020155606082015181600301556080820151816004015560a08201518160050160006101000a81548160ff02191690831515021790555060c08201518160050160016101000a81548160ff02191690831515021790555060e08201518160050160026101000a81548160ff021916908315150217905550905050505050505050505050565b60405180610100016040528060008152602001600073ffffffffffffffffffffffffffffffffffffffff1681526020016000801916815260200160008019168152602001600081526020016000151581526020016000151581526020016000151581525090565b600081359050611f9981612fd4565b92915050565b600081359050611fae81612feb565b92915050565b60008083601f840112611fc657600080fd5b8235905067ffffffffffffffff811115611fdf57600080fd5b602083019150836001820283011115611ff757600080fd5b9250929050565b60008135905061200d81613002565b92915050565b60008135905061202281613019565b92915050565b60006020828403121561203a57600080fd5b600061204884828501611f8a565b91505092915050565b6000806020838503121561206457600080fd5b600083013567ffffffffffffffff81111561207e57600080fd5b61208a85828601611fb4565b92509250509250929050565b6000602082840312156120a857600080fd5b60006120b684828501611ffe565b91505092915050565b600080600080600060a086880312156120d757600080fd5b60006120e588828901611ffe565b95505060206120f688828901611ffe565b945050604061210788828901611ffe565b935050606061211888828901611ffe565b925050608061212988828901611ffe565b9150509295509295909350565b600080600080600080600080600060e08a8c03121561215457600080fd5b60006121628c828d01612013565b99505060206121738c828d01611f9f565b98505060406121848c828d01611f9f565b97505060606121958c828d01611f8a565b96505060808a013567ffffffffffffffff8111156121b257600080fd5b6121be8c828d01611fb4565b955095505060a08a013567ffffffffffffffff8111156121dd57600080fd5b6121e98c828d01611fb4565b935093505060c06121fc8c828d01611ffe565b9150509295985092959850929598565b600080600080600080600060c0888a03121561222757600080fd5b60006122358a828b01612013565b97505060206122468a828b01611f9f565b96505060406122578a828b01611f9f565b95505060606122688a828b01611ffe565b945050608088013567ffffffffffffffff81111561228557600080fd5b6122918a828b01611fb4565b935093505060a06122a48a828b01611f8a565b91505092959891949750929550565b60006122bf8383612682565b60208301905092915050565b6122d481612c6e565b82525050565b6122e381612c6e565b82525050565b60006122f482612b09565b6122fe8185612b21565b935061230983612af9565b8060005b8381101561233a57815161232188826122b3565b975061232c83612b14565b92505060018101905061230d565b5085935050505092915050565b61235081612c80565b82525050565b61235f81612c8c565b82525050565b61236e81612c8c565b82525050565b61238561238082612c8c565b612cdc565b82525050565b60006123978385612b32565b93506123a4838584612ccd565b82840190509392505050565b60006123bd600e83612b3d565b91506123c882612d44565b602082019050919050565b60006123e0600283612b4e565b91506123eb82612d6d565b600282019050919050565b6000612403600a83612b3d565b915061240e82612d96565b602082019050919050565b6000612426601183612b3d565b915061243182612dbf565b602082019050919050565b6000612449603a83612b3d565b915061245482612de8565b604082019050919050565b600061246c601d83612b3d565b915061247782612e37565b602082019050919050565b600061248f601283612b3d565b915061249a82612e60565b602082019050919050565b60006124b2600e83612b3d565b91506124bd82612e89565b602082019050919050565b60006124d5601c83612b3d565b91506124e082612eb2565b602082019050919050565b60006124f8601983612b3d565b915061250382612edb565b602082019050919050565b600061251b601183612b3d565b915061252682612f04565b602082019050919050565b600061253e601083612b3d565b915061254982612f2d565b602082019050919050565b6000612561600083612b32565b915061256c82612f56565b600082019050919050565b6000612584600f83612b3d565b915061258f82612f59565b602082019050919050565b60006125a7601183612b3d565b91506125b282612f82565b602082019050919050565b60006125ca601f83612b3d565b91506125d582612fab565b602082019050919050565b610100820160008201516125f76000850182612682565b50602082015161260a60208501826122cb565b50604082015161261d6040850182612356565b5060608201516126306060850182612356565b5060808201516126436080850182612682565b5060a082015161265660a0850182612347565b5060c082015161266960c0850182612347565b5060e082015161267c60e0850182612347565b50505050565b61268b81612cb6565b82525050565b61269a81612cb6565b82525050565b6126a981612cc0565b82525050565b60006126bc82848661238b565b91508190509392505050565b60006126d3826123d3565b91506126df8285612374565b6020820191506126ef8284612374565b6020820191508190509392505050565b600061270a82612554565b9150819050919050565b600060208201905061272960008301846122da565b92915050565b6000602082019050818103600083015261274981846122e9565b905092915050565b60006080820190506127666000830187612365565b6127736020830186612365565b6127806040830185612365565b61278d6060830184612365565b95945050505050565b600060a0820190506127ab6000830188612365565b6127b86020830187612365565b6127c56040830186612365565b6127d26060830185612365565b6127df6080830184612365565b9695505050505050565b600060a0820190506127fe6000830188612365565b61280b6020830187612365565b6128186040830186612365565b6128256060830185612691565b61283260808301846122da565b9695505050505050565b60006080820190506128516000830187612365565b61285e60208301866126a0565b61286b6040830185612365565b6128786060830184612365565b95945050505050565b6000602082019050818103600083015261289a816123b0565b9050919050565b600060208201905081810360008301526128ba816123f6565b9050919050565b600060208201905081810360008301526128da81612419565b9050919050565b600060208201905081810360008301526128fa8161243c565b9050919050565b6000602082019050818103600083015261291a8161245f565b9050919050565b6000602082019050818103600083015261293a81612482565b9050919050565b6000602082019050818103600083015261295a816124a5565b9050919050565b6000602082019050818103600083015261297a816124c8565b9050919050565b6000602082019050818103600083015261299a816124eb565b9050919050565b600060208201905081810360008301526129ba8161250e565b9050919050565b600060208201905081810360008301526129da81612531565b9050919050565b600060208201905081810360008301526129fa81612577565b9050919050565b60006020820190508181036000830152612a1a8161259a565b9050919050565b60006020820190508181036000830152612a3a816125bd565b9050919050565b600061010082019050612a5760008301846125e0565b92915050565b600061050082019050612a7360008301886125e0565b612a816101008301876125e0565b612a8f6102008301866125e0565b612a9d6103008301856125e0565b612aab6104008301846125e0565b9695505050505050565b6000602082019050612aca6000830184612691565b92915050565b6000604082019050612ae56000830185612691565b612af26020830184612691565b9392505050565b6000819050602082019050919050565b600081519050919050565b6000602082019050919050565b600082825260208201905092915050565b600081905092915050565b600082825260208201905092915050565b600081905092915050565b6000612b6482612cb6565b9150612b6f83612cb6565b9250827fffffffffffffffffffffffffffffffffffffffffffffffffffffffffffffffff03821115612ba457612ba3612ce6565b5b828201905092915050565b6000612bba82612cb6565b9150612bc583612cb6565b925082612bd557612bd4612d15565b5b828204905092915050565b6000612beb82612cb6565b9150612bf683612cb6565b9250817fffffffffffffffffffffffffffffffffffffffffffffffffffffffffffffffff0483118215151615612c2f57612c2e612ce6565b5b828202905092915050565b6000612c4582612cb6565b9150612c5083612cb6565b925082821015612c6357612c62612ce6565b5b828203905092915050565b6000612c7982612c96565b9050919050565b60008115159050919050565b6000819050919050565b600073ffffffffffffffffffffffffffffffffffffffff82169050919050565b6000819050919050565b600060ff82169050919050565b82818337600083830152505050565b6000819050919050565b7f4e487b7100000000000000000000000000000000000000000000000000000000600052601160045260246000fd5b7f4e487b7100000000000000000000000000000000000000000000000000000000600052601260045260246000fd5b7f496e76616c6964205369676e6572000000000000000000000000000000000000600082015250565b7f1901000000000000000000000000000000000000000000000000000000000000600082015250565b7f496e76616c696420696400000000000000000000000000000000000000000000600082015250565b7f496e76616c6964207369676e6174757265000000000000000000000000000000600082015250565b7f416464726573733a20756e61626c6520746f2073656e642076616c75652c207260008201527f6563697069656e74206d61792068617665207265766572746564000000000000602082015250565b7f416464726573733a20696e73756666696369656e742062616c616e6365000000600082015250565b7f4e6f7420656e6f7567682062616c616e63650000000000000000000000000000600082015250565b7f496e76616c69642073656e646572000000000000000000000000000000000000600082015250565b7f4f6e6c7920746865206f776e65722063616e2063616c6c207468697300000000600082015250565b7f416d6f756e7420616e642056616c7565206d69736d6174636800000000000000600082015250565b7f496e76616c696420547769747465724964000000000000000000000000000000600082015250565b7f416c726561647920526566756e64656400000000000000000000000000000000600082015250565b50565b7f416c726561647920436c61696d65640000000000000000000000000000000000600082015250565b7f4e6f7420456e6f75676820426c616e6365000000000000000000000000000000600082015250565b7f5265656e7472616e637947756172643a207265656e7472616e742063616c6c00600082015250565b612fdd81612c6e565b8114612fe857600080fd5b50565b612ff481612c8c565b8114612fff57600080fd5b50565b61300b81612cb6565b811461301657600080fd5b50565b61302281612cc0565b811461302d57600080fd5b5056fea2646970667358221220c7c80b9559c1b586ea0f80306f29628f77dfc8579a831c680415792b43068fe364736f6c63430008040033",
  "linkReferences": {},
  "deployedLinkReferences": {}
}